:020000040800F2
:100000000020002009050008BD020008BF0200080A
:1000100000000000000000000000000000000000E0
:10002000000000000000000000000000C102000805
:100030000000000000000000C3020008C502000824
:10004000590500080000000059050008590500087E
:100050005905000859050008590500085905000808
:10006000000000005905000859050008590500085E
:10007000590500085905000859050008000000004E
:10008000590500085905000800000000590500083E
:1000900059050008590500085905000859050008C8
:1000A00059050008590500085905000859050008B8
:1000B00059050008000000000000000000000000DA
:1000C00010B5064C2378002B07D1054B002B02D02E
:1000D000044800E000BF0123237010BD040000208D
:1000E00000000000A4050008044B10B5002B03D04D
:1000F0000349044800E000BF10BDC04600000000F6
:1001000008000020A4050008002243088B4274D395
:1001100003098B425FD3030A8B4244D3030B8B4208
:1001200028D3030C8B420DD3FF22090212BA030C11
:100130008B4202D31212090265D0030B8B4219D3F2
:1001400000E0090AC30B8B4201D3CB03C01A524112
:10015000830B8B4201D38B03C01A5241430B8B425A
:1001600001D34B03C01A5241030B8B4201D30B0343
:10017000C01A5241C30A8B4201D3CB02C01A52416A
:10018000830A8B4201D38B02C01A5241430A8B422D
:1001900001D34B02C01A5241030A8B4201D30B0216
:1001A000C01A5241CDD2C3098B4201D3CB01C01A30
:1001B000524183098B4201D38B01C01A524143093A
:1001C0008B4201D34B01C01A524103098B4201D328
:1001D0000B01C01A5241C3088B4201D3CB00C01A95
:1001E000524183088B4201D38B00C01A524143080D
:1001F0008B4201D34B00C01A5241411A00D2014632
:10020000524110467047FFE701B5002000F006F8A4
:1002100002BDC0460029F7D076E770477047C04658
:1002200010B500F00FF800F063F800F04DF8322040
:1002300000F024F800F052F8FA20800000F01EF8D8
:10024000F3E7000010B50520404200F0B3F8074B7B
:1002500018680749FFF758FF40B2064B1870FA2399
:100260009B005843044B188010BDC046000000207E
:1002700000127A0022000020200000200C4B0022F7
:100280009B5E58430B4B586000229A601A6801210C
:100290000A431A60074B1B68074A1340012BF9D029
:1002A000044B1A6801218A431A6000229A60704741
:1002B0002000002010E000E0010001007047FEE790
:1002C000704770477047000010B5802189010248CF
:1002D00000F06EF810BDC0460008004810B580213F
:1002E0008901024800F062F810BDC04600080048CD
:1002F00000B583B080200121000300F06BF880235B
:100300009B01009301236A46137100239371033309
:1003100053716946034800F007F8FFF7DFFF03B0A9
:1003200000BDC0460008004870B5002317E004680F
:100330005D0003221600AE40B443046004680E79E9
:10034000AE4034430460C4681E04F60BB2409443CC
:10035000C460C268CC79AC402243C26001330F2B29
:1003600023D801229A400C681440A242F6D10A799F
:10037000013AD2B2012ADAD882685D000324AC4087
:10038000A243826082684C79AC40224382608288BA
:100390001C04240C0125A540AA43828085888A7903
:1003A000A24092B22A438280C1E770BD816170474A
:1003B00001857047042805D0054A136804218B4342
:1003C00013607047024A136804210B431360F8E777
:1003D00010E000E0002904D0044A5369184350613A
:1003E0007047024A536983435361F9E700100240A2
:1003F00082B0002301930093274A116880235B0297
:100400000B431360244B1B6880229202134000931D
:10041000019B01330193009B002B04D1019AA0237F
:10042000DB019A42EED11C4B1B689B0306D50123CE
:100430000093009B012B04D002B07047002300936F
:10044000F7E7164B11221A60134B5A685A605A6824
:100450005A605A6812490A405A6059688822520301
:100460000A435A601968802252040A431A600A4BF0
:100470001B689B01FBD5084B5A6803218A435A60CD
:100480005A6801390A435A60034B5A680C231340D7
:10049000082BF9D1D0E7C0460010024000200240EE
:1004A000FF7FC0FF10B5124B1A6801210A431A6082
:1004B0005A68104802405A601A680F4802401A6091
:1004C0001A680E4802401A605A680D4802405A6085
:1004D000DA6A0F208243DA621A6B0A4802401A6312
:1004E0005A6B8A435A6300229A60FFF781FF10BD5E
:1004F000001002400CB8FFF8FFFFF6FEFFFFFBFF05
:10050000FFFFC0FFACFEFFFF0D4885460D480E49BA
:100510000E4A002302E0D458C4500433C4188C425D
:10052000F9D30B4A0B4C002301E013600432A242C2
:10053000FBD3FFF7B7FF00F011F8FFF771FEFEE7FE
:10054000002000200000002004000020C405000856
:100550000400002024000020FEE7000070B5002603
:100560000C4D0D4C641BA410A64209D1002600F0CE
:1005700019F80A4D0A4C641BA410A64205D170BD9F
:10058000B300EB5898470136EEE7B300EB589847B5
:100590000136F2E7BC050008BC050008BC050008F0
:1005A000C0050008F8B5C046F8BC08BC9E467047B8
:0C05B000F8B5C046F8BC08BC9E46704779
:0405BC00E90000084A
:0405C000C10000086E
:0405C400006CDC02E9
:0400000508000509E1
:00000001FF
